:100000000C9434000C9430010C9451000C94510069
:100010000C9451000C9451000C9451000C9451001C
:100020000C9451000C9451000C9451000C9451000C
:100030000C9451000C9451000C948A000C945100C3
:100040000C9451000C9451000C9451000C945100EC
:100050000C9451000C9451000C9451000C945100DC
:100060000C9451000C94510011241FBECFEFD8E026
:10007000DEBFCDBF11E0A0E0B1E0EAE9F2E002C0EE
:1000800005900D92A230B107D9F721E0A2E0B1E0CE
:1000900001C01D92A930B207E1F70E9465000C94DF
:1000A0004B010C9400008093C600089587E690E011
:1000B0009093C5008093C4001092C00088E18093A3
:1000C000C10086E08093C20008950E94560083E537
:1000D00090E00E946C00FFCF22E024BD3FEC37BDD2
:1000E00020936E005B9A5A9A539A529831E030935B
:1000F0000001109204011092030110920701109266
:100100000801209369003DBB90930601809305018F
:10011000789408951F920F920FB60F9211242F9387
:100120003F934F935F936F937F938F939F93AF937F
:10013000BF93EF93FF9380910401813009F446C08F
:10014000823009F07CC080910301823091F028F464
:10015000882341F0813049F072C0833011F184303E
:1001600041F16DC081E08093000182E08093030142
:1001700066C04A9B07C09091000180910701892BBE
:100180008093070180910001880F80930001809186
:100190000001811154C083E08093030181E08DBB95
:1001A0004EC04A9904C081E08093020102C01092BF
:1001B0000201109203011092040180910701E09165
:1001C0000501F0910601099515BC39C08091030124
:1001D0008230A9F028F4882341F0813069F02FC0E3
:1001E000833019F1843031F12AC05B9881E080932B
:1001F00003018093000123C082E08093030190916A
:10020000080180910001892311F05B9A01C05B987D
:1002100080910001880F809300018091000181117D
:100220000EC083E0809303010AC05B9A84E0809350
:10023000030105C0109203011092040115BCFF9147
:10024000EF91BF91AF919F918F917F916F915F914E
:100250004F913F912F910F900FBE0F901F901895C7
:100260001F920F920FB60F9211248F938091040169
:1002700081110BC0E89882E0809304011092030181
:100280001092070185BD8EEC86BD8F910F900FBE39
:0A0290000F901F901895F894FFCF0F
:02029A00010061
:00000001FF
