:100000000C9434000C9444010C9451000C94510055
:100010000C9451000C9451000C9451000C9451001C
:100020000C9451000C9451000C9451000C9451000C
:100030000C9451000C9451000C949E000C945100AF
:100040000C9451000C9451000C9451000C945100EC
:100050000C9451000C9451000C9451000C945100DC
:100060000C9451000C94510011241FBECFEFD8E026
:10007000DEBFCDBF11E0A0E0B1E0E2ECF2E002C0F3
:1000800005900D92A631B107D9F721E0A6E1B1E0C4
:1000900001C01D92AD31B207E1F70E9454000C94EB
:1000A0005F010C940000089583E590E00E946A00CF
:1000B000C0E0D0E0FE01EF5FFE4F80812196FE019F
:1000C000EF5FFE4F9081911102C0C0E0D0E00E942E
:1000D0008800F0CF22E024BD3FEC37BD20936E00B6
:1000E0005B9A5A9A539A529831E0309300011092D9
:1000F00018011092170110921B0110921C012093FD
:1001000069003DBB90931A0180931901789408957A
:1001100080931C018091180181110EC081E08093B1
:1001200018011092170182E085BD8EEC86BD80918A
:1001300018018111FCCF089582E008951F920F925B
:100140000FB60F9211242F933F934F935F936F93AA
:100150007F938F939F93AF93BF93EF93FF93809180
:100160001801813009F446C0823009F07CC08091CA
:100170001701823091F028F4882341F0813049F052
:1001800072C0833011F1843041F16DC081E0809301
:10019000000182E08093170166C04A9B07C09091DE
:1001A000000180911B01892B80931B01809100012C
:1001B000880F8093000180910001811154C083E079
:1001C0008093170181E08DBB4EC04A9904C081E045
:1001D0008093160102C0109216011092170110921E
:1001E000180180911B01E0911901F0911A01099504
:1001F00015BC39C0809117018230A9F028F48823FA
:1002000041F0813069F02FC0833019F1843031F131
:100210002AC05B9881E0809317018093000123C07E
:1002200082E08093170190911C0180910001892345
:1002300011F05B9A01C05B9880910001880F809358
:1002400000018091000181110EC083E080931701AD
:100250000AC05B9A84E08093170105C010921701D1
:100260001092180115BCFF91EF91BF91AF919F9132
:100270008F917F916F915F914F913F912F910F904F
:100280000FBE0F901F9018951F920F920FB60F92EE
:1002900011248F938091180181110BC0E89882E09E
:1002A000809318011092170110921B0185BD8EECEE
:1002B00086BD8F910F900FBE0F901F901895F894E8
:0202C000FFCF6E
:1002C2000148656C6C6F2066726F6D2073656E6499
:0602D20065720D0A000038
:00000001FF
