:100000000C9434000C9477020C9451000C94510021
:100010000C9451000C9451000C9451000C9451001C
:100020000C9451000C9451000C9451000C9451000C
:100030000C9451000C9451000C946F010C945100DD
:100040000C9451000C9451000C94C4000C94510079
:100050000C9451000C9451000C9451000C945100DC
:100060000C9451000C94510011241FBECFEFD8E026
:10007000DEBFCDBF11E0A0E0B1E0ECE6F5E002C0EC
:1000800005900D92AA30B107D9F721E0AAE0B1E0BE
:1000900001C01D92A431B207E1F70E9480000C94C8
:1000A000B4020C940000CF93DF93CDB7DEB784EC9D
:1000B00090E027E630E0FC013183208380EC90E083
:1000C000FC01108281EC90E028E9FC01208382ECA5
:1000D00090E026E0FC0120830000DF91CF9108959D
:1000E000CF93DF931F92CDB7DEB7898386EC90E084
:1000F0002981FC01208300000F90DF91CF910895AA
:10010000CF93DF9300D000D0CDB7DEB781E091E090
:100110009C838B831A8219820E94530080E790E0AF
:100120000E94EB0012C0000089819A812B813C81E2
:10013000820F931FFC0180810E9447018823A1F751
:1001400089819A8101969A83898389819A812B81F9
:100150003C81820F931FFC018081882321F78091CD
:100160000A0190910B01892BD1F386EC90E020914C
:100170000F01FC01208380910F010E944701109222
:100180000B0110920A01EBCF1F920F9200905F00BB
:100190000F9211248F939F93EF93FF93CF93DF934D
:1001A000CDB7DEB786EC90E0FC01808180930F0133
:1001B00081E090E090930B0180930A010000DF91B1
:1001C000CF91FF91EF919F918F910F9000925F00DF
:1001D0000F901F901895CF93DF9300D0CDB7DEB767
:1001E0009A83898384E490E022E0FC01208387E401
:1001F00090E02FECFC0120838EE690E022E0FC01F1
:1002000020838BE290E02BE230E0F901208128602E
:10021000FC0120838BE290E02BE230E0F9012081A9
:100220002460FC0120838AE290E02AE230E0F901B8
:1002300020812860FC0120838AE290E02AE230E0FD
:10024000F90120812B7FFC01208381E08093000154
:1002500010920C0110920D011092120110921301D4
:1002600089E690E022E0FC0120838DE390E021E02C
:10027000FC01208389819A81909311018093100160
:10028000789400000F900F90DF91CF910895CF9355
:10029000DF931F92CDB7DEB78983898180931301E5
:1002A00080910C01882311F082E015C081E08093D9
:1002B0000C0110920D0185E490E022E0FC01208306
:1002C00086E490E02EECFC012083000080910C017C
:1002D0008823E1F780E00F90DF91CF9108951F927E
:1002E0000F9200905F000F9211242F933F934F9332
:1002F0005F936F937F938F939F93AF93BF93EF938E
:10030000FF93CF93DF931F92CDB7DEB780910C019F
:10031000882F90E08130910509F46AC0029709F0B6
:10032000D0C080910D01882F90E082309105B1F00E
:10033000833091052CF4009751F0019759F057C084
:100340008330910581F1049709F43FC050C081E0EA
:100350008093000182E080930D0149C089E290E022
:10036000FC01808189838981882F90E0847099279E
:10037000892B39F09091000180911201892B809393
:10038000120180910001880F80930001809100018B
:10039000882361F583E080930D018DE390E021E0F7
:1003A000FC01208323C089E290E0FC0180818983E5
:1003B0008981882F90E084709927892B21F481E02E
:1003C00080930E0102C010920E0110920D01109246
:1003D0000C01209110013091110180911201F9015D
:1003E000099585E490E0FC01108201C0000069C01D
:1003F00080910D01882F90E08230910519F18330B2
:1004000091052CF4009759F00197C9F059C0833039
:10041000910509F43EC0049709F448C051C08BE22D
:1004200090E02BE230E0F9012081277FFC0120835E
:1004300081E080930D0181E08093000141C082E062
:1004400080930D01909113018091000189238823ED
:1004500051F08BE290E02BE230E0F901208128603E
:10046000FC01208309C08BE290E02BE230E0F9012F
:100470002081277FFC01208380910001880F8093D9
:100480000001809100018823D1F483E080930D0165
:1004900016C08BE290E02BE230E0F9012081286069
:1004A000FC01208384E080930D010AC010920D01AD
:1004B00010920C0185E490E0FC01108201C0000064
:1004C000000000000F90DF91CF91FF91EF91BF915D
:1004D000AF919F918F917F916F915F914F913F91DC
:1004E0002F910F9000925F000F901F9018951F9210
:1004F0000F9200905F000F9211242F933F938F93E0
:100500009F93EF93FF93CF93DF93CDB7DEB78091A7
:100510000C018823D1F48DE390E02DE330E0F90164
:1005200020812E7FFC01208382E080930C011092B9
:100530000D011092120185E490E022E0FC0120837D
:1005400086E490E02EECFC0120830000DF91CF9147
:10055000FF91EF919F918F913F912F910F9000927A
:0C0560005F000F901F901895F894FFCFDB
:0A056C000148656C6C6F0D0A000079
:00000001FF
